:100000000C9462000C947F000C947F000C947F0091
:100010000C947F000C947F000C947F000C943001B2
:100020000C947F000C947F000C947F000C947F0054
:100030000C947F000C947F000C947F000C947F0044
:100040000C94E6000C947F000C947F000C947F00CD
:100050000C947F000C947F000C947F000C947F0024
:100060000C947F000C947F00000000002300260009
:10007000290000000008000201000003040700003E
:100080000000000000000200000000250028002BF6
:100090000000000000240027002A000404040404D7
:1000A0000404040202020202020303030303030125
:1000B00002040810204080010204081020010204FC
:1000C0000810200011241FBECFEFD8E0DEBFCDBF47
:1000D00011E0A0E0B1E0ECE4F6E002C005900D9282
:1000E000A230B107D9F721E0A2E0B1E001C01D9232
:1000F000AC31B207E1F70E94D4010C9424030C94B4
:100100000000833081F028F4813099F08230A1F032
:1001100008958730A9F08830B9F08430D1F4809107
:1001200080008F7D03C0809180008F778093800056
:10013000089584B58F7702C084B58F7D84BD0895FE
:100140008091B0008F7703C08091B0008F7D809345
:10015000B0000895CF93DF9390E0FC01E155FF4F8D
:100160002491FC01E556FF4F8491882361F190E0D2
:10017000880F991FFC01EF56FF4FC591D491FC01E8
:10018000E957FF4FA591B491611109C09FB7F89449
:100190008881209582238883EC912E230BC06230C6
:1001A00061F49FB7F8948881322F30958323888338
:1001B000EC912E2B2C939FBF06C08FB7F894E8814B
:1001C0002E2B28838FBFDF91CF9108951F920F921E
:1001D0000FB60F9211242F933F938F939F93AF935A
:1001E000BF938091180190911901A0911A01B091CB
:1001F0001B013091170123E0230F2D3720F40196C6
:10020000A11DB11D05C026E8230F0296A11DB11D39
:10021000209317018093180190931901A0931A015C
:10022000B0931B018091130190911401A0911501CD
:10023000B09116010196A11DB11D809313019093F9
:100240001401A0931501B0931601BF91AF919F9136
:100250008F913F912F910F900FBE0F901F90189587
:100260001F920F920FB60F9211242F933F934F932B
:100270005F936F937F938F939F93AF93BF93CF932E
:10028000DF93EF93FF938091070190910801A09174
:100290000901B0910A01892B8A2B8B2B59F190917E
:1002A0000201E0910301F09104018081892780839C
:1002B0008091070190910801A0910901B0910A0174
:1002C000181619061A061B060CF05BC08091070170
:1002D00090910801A0910901B0910A010197A1092B
:1002E000B1098093070190930801A0930901B0938D
:1002F0000A0147C020910001E6E8F0E0E4918FEFA9
:1003000080930001E130B9F098F0E230C9F48091B7
:1003100070008D7F8093700081E08093B0008091A9
:10032000B100887F84608093B1001092B30008C050
:1003300010926E0005C080916F008D7F80936F00DA
:1003400030E0F901EE58FF4F8491F901E155FF4F7C
:10035000D491F901E556FF4FC491CC2391F081115E
:100360000E948100EC2FF0E0EE0FFF1FE957FF4FD6
:10037000A591B4919FB7F8948C91D095D823DC9334
:100380009FBFFF91EF91DF91CF91BF91AF919F916F
:100390008F917F916F915F914F913F912F910F902E
:1003A0000FBE0F901F901895789484B5826084BD1D
:1003B00084B5816084BD85B5826085BD85B5816069
:1003C00085BD80916E00816080936E0010928100E7
:1003D00080918100826080938100809181008160A2
:1003E0008093810080918000816080938000809163
:1003F000B10084608093B1008091B00081608093EF
:10040000B00080917A00846080937A0080917A00B5
:10041000826080937A0080917A00816080937A0074
:1004200080917A00806880937A001092C10061E028
:100430008DE00E94AA0060E08EE00E94AA0069EAB6
:10044000462E60E0562E79E7672E712CE6E8EE2EF8
:10045000E0E0FE2EC8EAD0E088248A94982C54016B
:1004600049E7242E0CEB10E050E0C52E50E0D52ECD
:10047000E0E8F0E08491EDEBF0E09491F20134904B
:10048000332061F081110E948100E32DF0E0EE0F36
:10049000FF1FE859FF4FA591B4918C918091000105
:1004A0008D3021F08F3F09F0C8C003C0F7013490B0
:1004B00071C08DE080930001F70184918F3F09F4B2
:1004C000BCC0813009F444C040F1823009F061C001
:1004D0001092B0001092B1008091B00082608093C1
:1004E000B0008091B10081608093B100FE018491E1
:1004F000E82FF0E0EE0FFF1FE957FF4F8591949131
:100500009093040180930301F80184918093020188
:1005100061E08DE00E94AA005CC014BC15BC84B5EB
:10052000826084BD85B5816085BDFE018491E82F20
:10053000F0E0EE0FFF1FE957FF4F85919491F8010E
:1005400084918093060161E08DE00E94AA002EC094
:1005500010928000109281008091810088608093C9
:10056000810080918100816080938100FE018491EF
:10057000E82FF0E0EE0FFF1FE957FF4F85919491B0
:10058000F80184918093050161E08DE00E94AA004A
:100590002AC0382E37FC51C061E08DE00E94AA00CD
:1005A000332021F0F2E03F121BC013C085B5887FD5
:1005B000816085BD27BC80920F0190921001A092AE
:1005C0001101B092120180916E00826080936E00E2
:1005D00034C08091B100887F81608093B1001EC0DB
:1005E00081E0381218C080918100887F81608093FB
:1005F0008100709289006092880080920B01909235
:100600000C01A0920D01B0920E0180916F008260EA
:1006100080936F0012C0E2E03E120FC02092B30040
:100620008092070190920801A0920901B0920A01FC
:1006300080917000826080937000C114D10409F42D
:0C06400017CF0E9400000CCFF894FFCFF1
:02064C00FF00AD
:00000001FF
