:100000000C945D000C947A000C947A000C947A00A5
:100010000C947A000C947A000C947A000C94B3013E
:100020000C947A000C947A000C947A000C947A0068
:100030000C947A000C947A000C947A000C947A0058
:100040000C9469010C947A000C947A000C947A0058
:100050000C947A000C947A000C947A000C947A0038
:100060000C947A000C947A00000000080002010051
:100070000003040700000000000000000200000070
:1000800000250028002B0000000000240027002A83
:100090000004040404040404040202020202020331
:1000A000030303030301020408102040800102043B
:1000B0000810200102040810200011241FBECFEFF9
:1000C000D8E0DEBFCDBF13E0A0E0B1E0E6E9FBE0A1
:1000D00002C005900D92AE34B107D9F723E0AEE42B
:1000E000B3E001C01D92AA36B207E1F70E940F02E9
:1000F0000C94C9050C94000090E0FC01EB55FF4FF7
:100100002491FC01EF56FF4F8491882399F090E0F1
:10011000880F991FFC01E957FF4FA591B491FC018D
:10012000E358FF4F859194918FB7F894EC91E22BAF
:10013000EC938FBF08953FB7F89480916603909138
:100140006703A0916803B091690326B5A89B05C019
:100150002F3F19F00196A11DB11D3FBFBA2FA92F46
:10016000982F8827820F911DA11DB11DBC01CD01C3
:1001700042E0660F771F881F991F4A95D1F70895AF
:100180008F929F92AF92BF92CF92DF92EF92FF92A7
:100190006B017C010E949B004B015C01C114D104E6
:1001A000E104F104F1F00E949B00DC01CB0188190D
:1001B0009909AA09BB09883E9340A105B10570F3CE
:1001C00021E0C21AD108E108F10888EE880E83E028
:1001D000981EA11CB11CC114D104E104F10419F74B
:1001E000DDCFFF90EF90DF90CF90BF90AF909F90CA
:1001F0008F90089590910001891324C0ECE7F0E0FE
:10020000E4919FEF90930001E130B9F098F0E23073
:10021000C9F4909170009D7F9093700091E090934D
:10022000B0009091B100987F94609093B1001092CB
:10023000B30008C010926E0005C090916F009D7FC2
:1002400090936F0090E0FC01E859FF4F2491FC016E
:10025000EB55FF4F3491FC01EF56FF4FE491EE2335
:10026000B9F1222339F1233091F038F42130A9F08B
:10027000223001F584B58F7D12C0273091F02830EF
:10028000A1F02430B9F4809180008F7D03C080916B
:1002900080008F77809380000DC084B58F7784BDF8
:1002A00009C08091B0008F7703C08091B0008F7D2E
:1002B0008093B000F0E0EE0FFF1FE358FF4FA591D1
:1002C000B4919FB7F8948C91309538233C939FBF9D
:1002D00008951F920F920FB60F9211242F933F9300
:1002E0008F939F93AF93BF93809162039091630329
:1002F000A0916403B09165033091610323E0230F63
:100300002D3720F40196A11DB11D05C026E8230F4D
:100310000296A11DB11D2093610380936203909307
:100320006303A0936403B093650380916603909187
:100330006703A0916803B09169030196A11DB11DE7
:100340008093660390936703A0936803B093690357
:10035000BF91AF919F918F913F912F910F900FBEC1
:100360000F901F9018951F920F920FB60F921124A5
:100370002F933F934F935F936F937F938F939F93AD
:10038000AF93BF93EF93FF938091530390915403E6
:10039000A0915503B0915603892B8A2B8B2B51F1D9
:1003A00090914E03E0914F03F09150038081892793
:1003B00080838091530390915403A0915503B09191
:1003C0005603181619061A061B06C4F48091530327
:1003D00090915403A0915503B09156030197A10940
:1003E000B1098093530390935403A0935503B093A2
:1003F000560304C0809100010E94FA00FF91EF9122
:10040000BF91AF919F918F917F916F915F914F912C
:100410003F912F910F900FBE0F901F901895CF9383
:10042000DF9300D000D01F92CDB7DEB7789484B5AB
:10043000826084BD84B5816084BD85B5826085BDE0
:1004400085B5816085BD80916E00816080936E006E
:100450001092810080918100826080938100809160
:100460008100816080938100809180008160809311
:1004700080008091B10084608093B1008091B000D1
:1004800081608093B00080917A00846080937A00CC
:1004900080917A00826080937A0080917A008160F6
:1004A00080937A0080917A00806880937A0010921D
:1004B000C1008DE00E947C0082E690E09093600392
:1004C00080935F0388248A94982C540181E091E002
:1004D0009C838B83E9E8F2E0FA83E98300E010E093
:1004E0007EE9272E70E0372E80915F0390916003A4
:1004F000081719070CF0ABC1E981FA81C190D190BE
:10050000FA83E983809100018D3021F08F3F09F05B
:1005100086C105C0ECE7F0E0F491FD8371C08DE089
:1005200080930001ECE7F0E0F491FD83FF3F09F4D4
:1005300076C1F13009F441C038F1F23009F060C001
:100540001092B0001092B1008091B0008260809350
:10055000B0008091B10081608093B100F10184917D
:10056000E82FF0E0EE0FFF1FE358FF4F85919491C5
:100570009093500380934F03E2EBF0E084918093DB
:100580004E03F2E0FD83D3C114BC15BC84B5826078
:1005900084BD85B5816085BDF1018491E82FF0E0CF
:1005A000EE0FFF1FE358FF4F85919491E2EBF0E0CF
:1005B0008491809352031D82BAC1109280001092E0
:1005C000810080918100886080938100809181000A
:1005D000816080938100F1018491E82FF0E0EE0FBB
:1005E000FF1FE358FF4F85919491E2EBF0E0849177
:1005F000809351038DE00E947C00F1E0FD83A7C051
:100600008D8187FD0CC18DE00E947C008D818D7FE6
:1006100009F09DC0E12CF12C60E072E18AE790E0E6
:10062000A70196010E94880529013A01BA01A90192
:1006300041505109610971094F3F5105610571052B
:1006400009F008F447C060E472E48FE090E0A7018D
:1006500096010E948805BA01A9014150510961091A
:1006600071099D819230E9F44F3F51056105710593
:1006700009F008F4FCC060E970ED83E090E0A701A8
:1006800096010E948805BA01A901415051096109EA
:1006900071094F3F51056105710509F030F583E09F
:1006A0004FC04F3F510561057105B1F0A8F068E4F6
:1006B00078EE81E090E0A70196010E948805BA01DA
:1006C000A9014150510961097109ED81EE2309F435
:1006D000D0C025C181E001C082E0FD81F11130C0B0
:1006E00095B5987F892B85BD6AC068E478EE81E076
:1006F00090E0A70196010E948805BA01A901415026
:100700005109610971094F3F51056105710509F0F2
:1007100008F4ABC064E274EF80E090E0A7019601BA
:100720000E948805BA01A901415051096109710966
:100730004F3F51056105710511F008F0C9C085E012
:100740009091B100987F892B8093B10031C0E12C4A
:10075000F12C60E072E18AE790E0A70196010E9427
:100760008805BA01A9014150510961097109411572
:10077000510581E06807710580F068E478EE81E05A
:1007800090E0A70196010E948805BA01A901415095
:1007900051096109710983E001C081E09D819130B7
:1007A00039F490918100987F892B8093810016C045
:1007B000ED81E13099F0E23019F1E11130C047BD2F
:1007C00080925B0390925C03A0925D03B0925E0303
:1007D00080916E00826080936E0021C050938900EA
:1007E000409388008092570390925803A092590337
:1007F000B0925A0380916F00826080936F000FC0A7
:100800004093B3008092530390925403A0925503F7
:10081000B092560380917000826080937000EB81EB
:10082000FC816191719181919191FC83EB8320E036
:1008300030E048EC53E40E94F3040E949B040E94C1
:10084000C0008DE00E94FA000F5F1F4F4DCE68E898
:1008500073E180E090E00E94C00080E090E0892B8E
:1008600009F434CE0E94000031CE84E069CF82E0EA
:1008700067CF4F3F51056105710541F138F162E1E4
:100880007AE780E090E0A70196010E948805BA010E
:10089000A90141505109610971094F3F5105610595
:1008A000710591F088F0D301C2013AE0B595A795A2
:1008B000979587953A95D1F7AC01BD014150510903
:1008C0006109710985E00CCF84E00ACF83E008CF8D
:1008D00062E17AE780E090E0A70196010E94880536
:1008E000BA01A90141505109610971094F3F5105F0
:1008F0006105710591F088F0D301C2012AE0B59538
:10090000A795979587952A95D1F7AC01BD014150E0
:1009100051096109710987E013CF86E011CF4F3F7C
:1009200051056105710509F098F684E0D6CE8DE099
:100930000E947C006FCE0E94D20488F09F5798F0EE
:10094000B92F9927B751B0F0E1F0660F771F881FD4
:10095000991F1AF0BA95C9F714C0B13091F00E94EE
:10096000EC04B1E008950C94EC04672F782F8827ED
:10097000B85F39F0B93FCCF3869577956795B39515
:10098000D9F73EF490958095709561957F4F8F4F84
:100990009F4F089557FD9058440F551F59F05F3FE2
:1009A00071F04795880F97FB991F61F09F3F79F091
:1009B00087950895121613061406551FF2CF469513
:1009C000F1DF08C0161617061806991FF1CF869595
:1009D0007105610508940895E894BB276627772779
:1009E000CB0197F908950E9406050C9477050E94A3
:1009F000690538F00E94700520F0952311F00C94E1
:100A000060050C94660511240C94ED040E94CA0440
:100A100070F3959FC1F3950F50E0551F629FF00151
:100A2000729FBB27F00DB11D639FAA27F00DB11D6A
:100A3000AA1F649F6627B00DA11D661F829F2227F3
:100A4000B00DA11D621F739FB00DA11D621F839F7A
:100A5000A00D611D221F749F3327A00D611D231F50
:100A6000849F600D211D822F762F6A2F11249F579E
:100A700050409AF0F1F088234AF0EE0FFF1FBB1FA1
:100A8000661F771F881F91505040A9F79E3F510560
:100A900080F00C9460050C94ED045F3FE4F3983E05
:100AA000D4F3869577956795B795F795E7959F5F0A
:100AB000C1F7FE2B880F911D9695879597F908959C
:100AC00097F99F6780E870E060E008959FEF80EC01
:100AD000089500240A9416161706180609060895A4
:100AE00000240A9412161306140605060895092E0A
:100AF0000394000C11F4882352F0BB0F40F4BF2B79
:100B000011F460FF04C06F5F7F4F8F4F9F4F0895B8
:100B1000052E97FB1EF400940E949F0557FD07D0F9
:100B20000E94A70507FC03D04EF40C949F05509536
:100B30004095309521953F4F4F4F5F4F08959095C9
:100B40008095709561957F4F8F4F9F4F0895A1E2DB
:100B50001A2EAA1BBB1BFD010DC0AA1FBB1FEE1F37
:100B6000FF1FA217B307E407F50720F0A21BB30B82
:100B7000E40BF50B661F771F881F991F1A9469F7FE
:100B800060957095809590959B01AC01BD01CF015A
:060B90000895F894FFCF68
:100B9600FF0000803F0000803F0000003F00000093
:100BA6003F0000803F0000003F0000003F000000C3
:100BB6003F0000003F0000803F0000003F000000B3
:100BC6003F0000003F0000803F0000003F00008023
:100BD6003F0000003F0000003F0000003F00000013
:100BE6003F0000003F0000003F0000803F00008003
:100BF6003F0000803F0000803F00000040000000F2
:100C06003F0000803F0000C03F0000803F000080A2
:100C16003F0000803F0000003F0000003F000080D2
:100C26003F0000003F0000803F0000C03F00008002
:100C36003F0000003F0000003F0000003F000000B2
:100C46003F000000400000003F0000803F0000C061
:100C56003F0000803F000000400000003F00000011
:100C66003F0000803F000080400000003F00000081
:100C76003F0000403F0000803E0000403F000080F3
:100C86003E0000403F0000803E0000003F00008024
:100C96003F0000003F0000803F0000803F00000052
:100CA6003F0000003F0000403F0000803E00004043
:100CB6003F0000803E0000403F0000803E000000F4
:100CC6003F0000803F0000003F0000803F000080A2
:100CD6003F000000400000003F0000003F00008091
:100CE6003F000080400000003F0000803F00000001
:100CF6003F000000400000003F0000803F00000071
:100D06003F00000040000000400000003F000000DF
:100D16003F0000803F000080404D02EF01B901EF27
:100D260001FFFF4D02EF01B9014D02EF01FFFFEF99
:100D360001EF01EF01B901EF01FFFFEF014D02EFF6
:100D460001B9014D02EF01FFFF260126015E0126D2
:100D56000126015E01FFFFEF01EF01EF01B901EF8F
:100D660001B90126015E01FFFF4D02EF01EF01B956
:100D760001EF01B90126014A01FFFF2C022C02B93D
:100D8600015E01B9014D02FFFFEF01EF01B901B9A3
:100D960001EF01EF01FFFFB90126015E01FFFF4DE3
:100DA60002FFFFEF01EF01B901B901EF01EF01FF0A
:100DB600FFB90126014A01FFFF5E015E012601F827
:100DC6000026015E01B901EF01EF015E01B901EFF5
:0E0DD60001EF014D02FFFF2C02B901EF0100F9
:107E0000112484B714BE81FFF0D085E080938100F7
:107E100082E08093C00088E18093C10086E0809377
:107E2000C20080E18093C4008EE0C9D0259A86E02C
:107E300020E33CEF91E0309385002093840096BBD3
:107E4000B09BFECF1D9AA8958150A9F7CC24DD24C4
:107E500088248394B5E0AB2EA1E19A2EF3E0BF2EE7
:107E6000A2D0813461F49FD0082FAFD0023811F036
:107E7000013811F484E001C083E08DD089C08234E0
:107E800011F484E103C0853419F485E0A6D080C0E4
:107E9000853579F488D0E82EFF2485D0082F10E0AE
:107EA000102F00270E291F29000F111F8ED06801E7
:107EB0006FC0863521F484E090D080E0DECF843638
:107EC00009F040C070D06FD0082F6DD080E0C81688
:107ED00080E7D80618F4F601B7BEE895C0E0D1E017
:107EE00062D089930C17E1F7F0E0CF16F0E7DF06D8
:107EF00018F0F601B7BEE89568D007B600FCFDCFD4
:107F0000A601A0E0B1E02C9130E011968C91119780
:107F100090E0982F8827822B932B1296FA010C0160
:107F200087BEE89511244E5F5F4FF1E0A038BF0790
:107F300051F7F601A7BEE89507B600FCFDCF97BE46
:107F4000E89526C08437B1F42ED02DD0F82E2BD052
:107F50003CD0F601EF2C8F010F5F1F4F84911BD097
:107F6000EA94F801C1F70894C11CD11CFA94CF0C13
:107F7000D11C0EC0853739F428D08EE10CD085E9AC
:107F80000AD08FE07ACF813511F488E018D01DD067
:107F900080E101D065CF982F8091C00085FFFCCF94
:107FA0009093C60008958091C00087FFFCCF809118
:107FB000C00084FD01C0A8958091C6000895E0E648
:107FC000F0E098E1908380830895EDDF803219F02E
:107FD00088E0F5DFFFCF84E1DECF1F93182FE3DFCA
:107FE0001150E9F7F2DF1F91089580E0E8DFEE27F6
:047FF000FF270994CA
:027FFE00040479
:0400000300007E007B
:00000001FF
